{
  "_format": "hh-sol-artifact-1",
  "contractName": "Transactions",
  "sourceName": "contracts/Transactions.sol",
  "abi": [
    {
      "anonymous": false,
      "inputs": [
        {
          "indexed": false,
          "internalType": "address",
          "name": "_from",
          "type": "address"
        },
        {
          "indexed": false,
          "internalType": "address",
          "name": "_to",
          "type": "address"
        },
        {
          "indexed": false,
          "internalType": "uint256",
          "name": "_amount",
          "type": "uint256"
        },
        {
          "indexed": false,
          "internalType": "string",
          "name": "message",
          "type": "string"
        },
        {
          "indexed": false,
          "internalType": "uint256",
          "name": "timestamp",
          "type": "uint256"
        }
      ],
      "name": "Transfer",
      "type": "event"
    },
    {
      "inputs": [
        {
          "internalType": "address payable",
          "name": "receiver",
          "type": "address"
        },
        {
          "internalType": "uint256",
          "name": "amount",
          "type": "uint256"
        },
        {
          "internalType": "string",
          "name": "message",
          "type": "string"
        }
      ],
      "name": "addToBlockChain",
      "outputs": [],
      "stateMutability": "nonpayable",
      "type": "function"
    },
    {
      "inputs": [],
      "name": "getAllTransactions",
      "outputs": [
        {
          "components": [
            {
              "internalType": "address",
              "name": "sender",
              "type": "address"
            },
            {
              "internalType": "address",
              "name": "receiver",
              "type": "address"
            },
            {
              "internalType": "uint256",
              "name": "amount",
              "type": "uint256"
            },
            {
              "internalType": "string",
              "name": "message",
              "type": "string"
            },
            {
              "internalType": "uint256",
              "name": "timestamp",
              "type": "uint256"
            }
          ],
          "internalType": "struct Transactions.TransactionRecord[]",
          "name": "",
          "type": "tuple[]"
        }
      ],
      "stateMutability": "view",
      "type": "function"
    }
  ],
  "bytecode": "0x608060405234801561001057600080fd5b50610aad806100206000396000f3fe608060405234801561001057600080fd5b50600436106100365760003560e01c806327506f531461003b578063d5594fb814610059575b600080fd5b610043610075565b6040516100509190610774565b60405180910390f35b610073600480360381019061006e91906104f7565b610226565b005b60606001805480602002602001604051908101604052809291908181526020016000905b8282101561021d57838290600052602060002090600502016040518060a00160405290816000820160009054906101000a900473ffffffffffffffffffffffffffffffffffffffff1673ffffffffffffffffffffffffffffffffffffffff1673ffffffffffffffffffffffffffffffffffffffff1681526020016001820160009054906101000a900473ffffffffffffffffffffffffffffffffffffffff1673ffffffffffffffffffffffffffffffffffffffff1673ffffffffffffffffffffffffffffffffffffffff1681526020016002820154815260200160038201805461018290610979565b80601f01602080910402602001604051908101604052809291908181526020018280546101ae90610979565b80156101fb5780601f106101d0576101008083540402835291602001916101fb565b820191906000526020600020905b8154815290600101906020018083116101de57829003601f168201915b5050505050815260200160048201548152505081526020019060010190610099565b50505050905090565b6001600080828254610238919061085d565b9250508190555060016040518060a001604052803373ffffffffffffffffffffffffffffffffffffffff1681526020018573ffffffffffffffffffffffffffffffffffffffff16815260200184815260200183815260200142815250908060018154018082558091505060019003906000526020600020906005020160009091909190915060008201518160000160006101000a81548173ffffffffffffffffffffffffffffffffffffffff021916908373ffffffffffffffffffffffffffffffffffffffff16021790555060208201518160010160006101000a81548173ffffffffffffffffffffffffffffffffffffffff021916908373ffffffffffffffffffffffffffffffffffffffff1602179055506040820151816002015560608201518160030190805190602001906103719291906103c2565b506080820151816004015550507fc4b32d7ff75a51e487f3cbb5d3202f2efecca1f4c2b987e0039c1d3220b48a8333848484426040516103b595949392919061071a565b60405180910390a1505050565b8280546103ce90610979565b90600052602060002090601f0160209004810192826103f05760008555610437565b82601f1061040957805160ff1916838001178555610437565b82800160010185558215610437579182015b8281111561043657825182559160200191906001019061041b565b5b5090506104449190610448565b5090565b5b80821115610461576000816000905550600101610449565b5090565b6000610478610473846107c7565b610796565b90508281526020810184848401111561049057600080fd5b61049b848285610937565b509392505050565b6000813590506104b281610a49565b92915050565b600082601f8301126104c957600080fd5b81356104d9848260208601610465565b91505092915050565b6000813590506104f181610a60565b92915050565b60008060006060848603121561050c57600080fd5b600061051a868287016104a3565b935050602061052b868287016104e2565b925050604084013567ffffffffffffffff81111561054857600080fd5b610554868287016104b8565b9150509250925092565b600061056a8383610686565b905092915050565b61057b81610901565b82525050565b61058a816108b3565b82525050565b610599816108b3565b82525050565b60006105aa82610807565b6105b4818561082a565b9350836020820285016105c6856107f7565b8060005b8581101561060257848403895281516105e3858261055e565b94506105ee8361081d565b925060208a019950506001810190506105ca565b50829750879550505050505092915050565b600061061f82610812565b610629818561083b565b9350610639818560208601610946565b61064281610a38565b840191505092915050565b600061065882610812565b610662818561084c565b9350610672818560208601610946565b61067b81610a38565b840191505092915050565b600060a08301600083015161069e6000860182610581565b5060208301516106b16020860182610581565b5060408301516106c460408601826106fc565b50606083015184820360608601526106dc8282610614565b91505060808301516106f160808601826106fc565b508091505092915050565b610705816108f7565b82525050565b610714816108f7565b82525050565b600060a08201905061072f6000830188610590565b61073c6020830187610572565b610749604083018661070b565b818103606083015261075b818561064d565b905061076a608083018461070b565b9695505050505050565b6000602082019050818103600083015261078e818461059f565b905092915050565b6000604051905081810181811067ffffffffffffffff821117156107bd576107bc610a09565b5b8060405250919050565b600067ffffffffffffffff8211156107e2576107e1610a09565b5b601f19601f8301169050602081019050919050565b6000819050602082019050919050565b600081519050919050565b600081519050919050565b6000602082019050919050565b600082825260208201905092915050565b600082825260208201905092915050565b600082825260208201905092915050565b6000610868826108f7565b9150610873836108f7565b9250827fffffffffffffffffffffffffffffffffffffffffffffffffffffffffffffffff038211156108a8576108a76109ab565b5b828201905092915050565b60006108be826108d7565b9050919050565b60006108d0826108d7565b9050919050565b600073ffffffffffffffffffffffffffffffffffffffff82169050919050565b6000819050919050565b600061090c82610913565b9050919050565b600061091e82610925565b9050919050565b6000610930826108d7565b9050919050565b82818337600083830152505050565b60005b83811015610964578082015181840152602081019050610949565b83811115610973576000848401525b50505050565b6000600282049050600182168061099157607f821691505b602082108114156109a5576109a46109da565b5b50919050565b7f4e487b7100000000000000000000000000000000000000000000000000000000600052601160045260246000fd5b7f4e487b7100000000000000000000000000000000000000000000000000000000600052602260045260246000fd5b7f4e487b7100000000000000000000000000000000000000000000000000000000600052604160045260246000fd5b6000601f19601f8301169050919050565b610a52816108c5565b8114610a5d57600080fd5b50565b610a69816108f7565b8114610a7457600080fd5b5056fea26469706673582212208eb9c1c3e6826b8c12260e46a673e049b69b55fd9c0a05458e0781a001c58c7e64736f6c63430008000033",
  "linkReferences": {},
  "deployedLinkReferences": {}
}